{
  "_format": "hh-sol-artifact-1",
  "contractName": "ContentVerification",
  "sourceName": "contracts/ContentVerification.sol",
  "abi": [
    {
      "anonymous": false,
      "inputs": [
        {
          "indexed": true,
          "internalType": "bytes32",
          "name": "contentId",
          "type": "bytes32"
        },
        {
          "indexed": false,
          "internalType": "string",
          "name": "ipfsHash",
          "type": "string"
        },
        {
          "indexed": true,
          "internalType": "address",
          "name": "modifiedBy",
          "type": "address"
        }
      ],
      "name": "ContentModified",
      "type": "event"
    },
    {
      "anonymous": false,
      "inputs": [
        {
          "indexed": true,
          "internalType": "bytes32",
          "name": "contentId",
          "type": "bytes32"
        },
        {
          "indexed": false,
          "internalType": "string",
          "name": "ipfsHash",
          "type": "string"
        },
        {
          "indexed": true,
          "internalType": "address",
          "name": "publisher",
          "type": "address"
        }
      ],
      "name": "ContentPublished",
      "type": "event"
    },
    {
      "anonymous": false,
      "inputs": [
        {
          "indexed": true,
          "internalType": "address",
          "name": "sourceAddress",
          "type": "address"
        },
        {
          "indexed": false,
          "internalType": "string",
          "name": "name",
          "type": "string"
        }
      ],
      "name": "SourceRegistered",
      "type": "event"
    },
    {
      "inputs": [
        {
          "internalType": "bytes32",
          "name": "",
          "type": "bytes32"
        }
      ],
      "name": "contents",
      "outputs": [
        {
          "internalType": "string",
          "name": "ipfsHash",
          "type": "string"
        },
        {
          "internalType": "address",
          "name": "publisher",
          "type": "address"
        },
        {
          "internalType": "uint256",
          "name": "timestamp",
          "type": "uint256"
        },
        {
          "internalType": "string",
          "name": "contentType",
          "type": "string"
        },
        {
          "internalType": "uint256",
          "name": "credibilityScore",
          "type": "uint256"
        },
        {
          "internalType": "bool",
          "name": "isVerified",
          "type": "bool"
        },
        {
          "internalType": "uint256",
          "name": "modificationsCount",
          "type": "uint256"
        }
      ],
      "stateMutability": "view",
      "type": "function"
    },
    {
      "inputs": [
        {
          "internalType": "bytes32",
          "name": "contentId",
          "type": "bytes32"
        }
      ],
      "name": "getContent",
      "outputs": [
        {
          "internalType": "string",
          "name": "ipfsHash",
          "type": "string"
        },
        {
          "internalType": "address",
          "name": "publisher",
          "type": "address"
        },
        {
          "internalType": "uint256",
          "name": "timestamp",
          "type": "uint256"
        },
        {
          "internalType": "string",
          "name": "contentType",
          "type": "string"
        },
        {
          "internalType": "uint256",
          "name": "credibilityScore",
          "type": "uint256"
        },
        {
          "internalType": "bool",
          "name": "isVerified",
          "type": "bool"
        },
        {
          "internalType": "uint256",
          "name": "modificationsCount",
          "type": "uint256"
        }
      ],
      "stateMutability": "view",
      "type": "function"
    },
    {
      "inputs": [
        {
          "internalType": "bytes32",
          "name": "contentId",
          "type": "bytes32"
        },
        {
          "internalType": "uint256",
          "name": "index",
          "type": "uint256"
        }
      ],
      "name": "getModification",
      "outputs": [
        {
          "internalType": "string",
          "name": "ipfsHash",
          "type": "string"
        },
        {
          "internalType": "string",
          "name": "description",
          "type": "string"
        },
        {
          "internalType": "uint256",
          "name": "timestamp",
          "type": "uint256"
        },
        {
          "internalType": "address",
          "name": "modifiedBy",
          "type": "address"
        }
      ],
      "stateMutability": "view",
      "type": "function"
    },
    {
      "inputs": [
        {
          "internalType": "address",
          "name": "sourceAddress",
          "type": "address"
        }
      ],
      "name": "getSource",
      "outputs": [
        {
          "internalType": "string",
          "name": "name",
          "type": "string"
        },
        {
          "internalType": "uint256",
          "name": "credibilityScore",
          "type": "uint256"
        },
        {
          "internalType": "uint256",
          "name": "totalPublications",
          "type": "uint256"
        },
        {
          "internalType": "bool",
          "name": "isVerified",
          "type": "bool"
        }
      ],
      "stateMutability": "view",
      "type": "function"
    },
    {
      "inputs": [
        {
          "internalType": "bytes32",
          "name": "",
          "type": "bytes32"
        },
        {
          "internalType": "uint256",
          "name": "",
          "type": "uint256"
        }
      ],
      "name": "modifications",
      "outputs": [
        {
          "internalType": "string",
          "name": "ipfsHash",
          "type": "string"
        },
        {
          "internalType": "string",
          "name": "description",
          "type": "string"
        },
        {
          "internalType": "uint256",
          "name": "timestamp",
          "type": "uint256"
        },
        {
          "internalType": "address",
          "name": "modifiedBy",
          "type": "address"
        }
      ],
      "stateMutability": "view",
      "type": "function"
    },
    {
      "inputs": [
        {
          "internalType": "bytes32",
          "name": "contentId",
          "type": "bytes32"
        },
        {
          "internalType": "string",
          "name": "newIpfsHash",
          "type": "string"
        },
        {
          "internalType": "string",
          "name": "description",
          "type": "string"
        }
      ],
      "name": "modifyContent",
      "outputs": [],
      "stateMutability": "nonpayable",
      "type": "function"
    },
    {
      "inputs": [
        {
          "internalType": "string",
          "name": "ipfsHash",
          "type": "string"
        },
        {
          "internalType": "string",
          "name": "contentType",
          "type": "string"
        }
      ],
      "name": "publishContent",
      "outputs": [
        {
          "internalType": "bytes32",
          "name": "",
          "type": "bytes32"
        }
      ],
      "stateMutability": "nonpayable",
      "type": "function"
    },
    {
      "inputs": [
        {
          "internalType": "string",
          "name": "name",
          "type": "string"
        }
      ],
      "name": "registerSource",
      "outputs": [],
      "stateMutability": "nonpayable",
      "type": "function"
    },
    {
      "inputs": [
        {
          "internalType": "address",
          "name": "",
          "type": "address"
        }
      ],
      "name": "sources",
      "outputs": [
        {
          "internalType": "string",
          "name": "name",
          "type": "string"
        },
        {
          "internalType": "uint256",
          "name": "credibilityScore",
          "type": "uint256"
        },
        {
          "internalType": "uint256",
          "name": "totalPublications",
          "type": "uint256"
        },
        {
          "internalType": "bool",
          "name": "isVerified",
          "type": "bool"
        }
      ],
      "stateMutability": "view",
      "type": "function"
    }
  ],
  "bytecode": "0x608060405234801561001057600080fd5b50612047806100206000396000f3fe608060405234801561001057600080fd5b50600436106100935760003560e01c80635cc15001116100665780635cc150011461014a5780639f1b9a5214610180578063b750bdde146101b3578063e118927f146101e6578063f20ca12c1461020257610093565b80630e3b7ecd146100985780633ee8f248146100c857806346f2dd12146100fb5780634b81d2f31461012e575b600080fd5b6100b260048036038101906100ad9190611486565b610238565b6040516100bf9190611517565b60405180910390f35b6100e260048036038101906100dd9190611590565b6104a8565b6040516100f29493929190611670565b60405180910390f35b61011560048036038101906101109190611714565b610629565b6040516101259493929190611763565b60405180910390f35b610148600480360381019061014391906117b6565b610907565b005b610164600480360381019061015f9190611841565b610b20565b604051610177979695949392919061186e565b60405180910390f35b61019a60048036038101906101959190611714565b610daf565b6040516101aa9493929190611763565b60405180910390f35b6101cd60048036038101906101c89190611590565b610f1c565b6040516101dd9493929190611670565b60405180910390f35b61020060048036038101906101fb91906118eb565b610fe1565b005b61021c60048036038101906102179190611841565b6111ad565b60405161022f979695949392919061186e565b60405180910390f35b60008083511161027d576040517f08c379a000000000000000000000000000000000000000000000000000000000815260040161027490611980565b60405180910390fd5b600083423360405160200161029493929190611a45565b6040516020818303038152906040528051906020012090506040518060e001604052808581526020013373ffffffffffffffffffffffffffffffffffffffff168152602001428152602001848152602001600260003373ffffffffffffffffffffffffffffffffffffffff1673ffffffffffffffffffffffffffffffffffffffff168152602001908152602001600020600101548152602001600260003373ffffffffffffffffffffffffffffffffffffffff1673ffffffffffffffffffffffffffffffffffffffff16815260200190815260200160002060030160009054906101000a900460ff1615158152602001600081525060008083815260200190815260200160002060008201518160000190816103b09190611c8a565b5060208201518160010160006101000a81548173ffffffffffffffffffffffffffffffffffffffff021916908373ffffffffffffffffffffffffffffffffffffffff1602179055506040820151816002015560608201518160030190816104179190611c8a565b506080820151816004015560a08201518160050160006101000a81548160ff02191690831515021790555060c082015181600601559050503373ffffffffffffffffffffffffffffffffffffffff16817f56d52b6d8ba6b3d3b66d5b943e22b4188f9652f3db9fcc6963a305cc4f1309c1866040516104969190611d5c565b60405180910390a38091505092915050565b6060600080600080600260008773ffffffffffffffffffffffffffffffffffffffff1673ffffffffffffffffffffffffffffffffffffffff16815260200190815260200160002060405180608001604052908160008201805461050a90611aad565b80601f016020809104026020016040519081016040528092919081815260200182805461053690611aad565b80156105835780601f1061055857610100808354040283529160200191610583565b820191906000526020600020905b81548152906001019060200180831161056657829003601f168201915b5050505050815260200160018201548152602001600282015481526020016003820160009054906101000a900460ff1615151515815250509050600081600001515111610605576040517f08c379a00000000000000000000000000000000000000000000000000000000081526004016105fc90611dca565b60405180910390fd5b80600001518160200151826040015183606001519450945094509450509193509193565b606080600080600073ffffffffffffffffffffffffffffffffffffffff1660008088815260200190815260200160002060010160009054906101000a900473ffffffffffffffffffffffffffffffffffffffff1673ffffffffffffffffffffffffffffffffffffffff16036106d3576040517f08c379a00000000000000000000000000000000000000000000000000000000081526004016106ca90611e36565b60405180910390fd5b60008087815260200190815260200160002060060154851061072a576040517f08c379a000000000000000000000000000000000000000000000000000000000815260040161072190611ea2565b60405180910390fd5b600060016000888152602001908152602001600020600087815260200190815260200160002060405180608001604052908160008201805461076b90611aad565b80601f016020809104026020016040519081016040528092919081815260200182805461079790611aad565b80156107e45780601f106107b9576101008083540402835291602001916107e4565b820191906000526020600020905b8154815290600101906020018083116107c757829003601f168201915b505050505081526020016001820180546107fd90611aad565b80601f016020809104026020016040519081016040528092919081815260200182805461082990611aad565b80156108765780601f1061084b57610100808354040283529160200191610876565b820191906000526020600020905b81548152906001019060200180831161085957829003601f168201915b50505050508152602001600282015481526020016003820160009054906101000a900473ffffffffffffffffffffffffffffffffffffffff1673ffffffffffffffffffffffffffffffffffffffff1673ffffffffffffffffffffffffffffffffffffffff16815250509050806000015181602001518260400151836060015194509450945094505092959194509250565b600073ffffffffffffffffffffffffffffffffffffffff1660008085815260200190815260200160002060010160009054906101000a900473ffffffffffffffffffffffffffffffffffffffff1673ffffffffffffffffffffffffffffffffffffffff16036109ab576040517f08c379a00000000000000000000000000000000000000000000000000000000081526004016109a290611e36565b60405180910390fd5b600080600085815260200190815260200160002060060154905060405180608001604052808481526020018381526020014281526020013373ffffffffffffffffffffffffffffffffffffffff168152506001600086815260200190815260200160002060008381526020019081526020016000206000820151816000019081610a359190611c8a565b506020820151816001019081610a4b9190611c8a565b506040820151816002015560608201518160030160006101000a81548173ffffffffffffffffffffffffffffffffffffffff021916908373ffffffffffffffffffffffffffffffffffffffff1602179055509050506000808581526020019081526020016000206006016000815480929190610ac690611ef1565b91905055503373ffffffffffffffffffffffffffffffffffffffff16847f77dee5ff59eda5d6c24a222cd6d3ac9fd9340aebc1b35eebe8a3bc5f6cb368f785604051610b129190611d5c565b60405180910390a350505050565b606060008060606000806000806000808a81526020019081526020016000206040518060e0016040529081600082018054610b5a90611aad565b80601f0160208091040260200160405190810160405280929190818152602001828054610b8690611aad565b8015610bd35780601f10610ba857610100808354040283529160200191610bd3565b820191906000526020600020905b815481529060010190602001808311610bb657829003601f168201915b505050505081526020016001820160009054906101000a900473ffffffffffffffffffffffffffffffffffffffff1673ffffffffffffffffffffffffffffffffffffffff1673ffffffffffffffffffffffffffffffffffffffff16815260200160028201548152602001600382018054610c4c90611aad565b80601f0160208091040260200160405190810160405280929190818152602001828054610c7890611aad565b8015610cc55780601f10610c9a57610100808354040283529160200191610cc5565b820191906000526020600020905b815481529060010190602001808311610ca857829003601f168201915b50505050508152602001600482015481526020016005820160009054906101000a900460ff161515151581526020016006820154815250509050600073ffffffffffffffffffffffffffffffffffffffff16816020015173ffffffffffffffffffffffffffffffffffffffff1603610d72576040517f08c379a0000000000000000000000000000000000000000000000000000000008152600401610d6990611e36565b60405180910390fd5b806000015181602001518260400151836060015184608001518560a001518660c00151975097509750975097509750975050919395979092949650565b600160205281600052604060002060205280600052604060002060009150915050806000018054610ddf90611aad565b80601f0160208091040260200160405190810160405280929190818152602001828054610e0b90611aad565b8015610e585780601f10610e2d57610100808354040283529160200191610e58565b820191906000526020600020905b815481529060010190602001808311610e3b57829003601f168201915b505050505090806001018054610e6d90611aad565b80601f0160208091040260200160405190810160405280929190818152602001828054610e9990611aad565b8015610ee65780601f10610ebb57610100808354040283529160200191610ee6565b820191906000526020600020905b815481529060010190602001808311610ec957829003601f168201915b5050505050908060020154908060030160009054906101000a900473ffffffffffffffffffffffffffffffffffffffff16905084565b6002602052806000526040600020600091509050806000018054610f3f90611aad565b80601f0160208091040260200160405190810160405280929190818152602001828054610f6b90611aad565b8015610fb85780601f10610f8d57610100808354040283529160200191610fb8565b820191906000526020600020905b815481529060010190602001808311610f9b57829003601f168201915b5050505050908060010154908060020154908060030160009054906101000a900460ff16905084565b6000815111611025576040517f08c379a000000000000000000000000000000000000000000000000000000000815260040161101c90611f85565b60405180910390fd5b6000600260003373ffffffffffffffffffffffffffffffffffffffff1673ffffffffffffffffffffffffffffffffffffffff16815260200190815260200160002060010154146110aa576040517f08c379a00000000000000000000000000000000000000000000000000000000081526004016110a190611ff1565b60405180910390fd5b6040518060800160405280828152602001603281526020016000815260200160001515815250600260003373ffffffffffffffffffffffffffffffffffffffff1673ffffffffffffffffffffffffffffffffffffffff16815260200190815260200160002060008201518160000190816111249190611c8a565b50602082015181600101556040820151816002015560608201518160030160006101000a81548160ff0219169083151502179055509050503373ffffffffffffffffffffffffffffffffffffffff167fe16f60a7435e40b40b1e3aaaab298052814ed8928184f68c638cb1707470b84e826040516111a29190611d5c565b60405180910390a250565b60006020528060005260406000206000915090508060000180546111d090611aad565b80601f01602080910402602001604051908101604052809291908181526020018280546111fc90611aad565b80156112495780601f1061121e57610100808354040283529160200191611249565b820191906000526020600020905b81548152906001019060200180831161122c57829003601f168201915b5050505050908060010160009054906101000a900473ffffffffffffffffffffffffffffffffffffffff169080600201549080600301805461128a90611aad565b80601f01602080910402602001604051908101604052809291908181526020018280546112b690611aad565b80156113035780601f106112d857610100808354040283529160200191611303565b820191906000526020600020905b8154815290600101906020018083116112e657829003601f168201915b5050505050908060040154908060050160009054906101000a900460ff16908060060154905087565b6000604051905090565b600080fd5b600080fd5b600080fd5b600080fd5b6000601f19601f8301169050919050565b7f4e487b7100000000000000000000000000000000000000000000000000000000600052604160045260246000fd5b6113938261134a565b810181811067ffffffffffffffff821117156113b2576113b161135b565b5b80604052505050565b60006113c561132c565b90506113d1828261138a565b919050565b600067ffffffffffffffff8211156113f1576113f061135b565b5b6113fa8261134a565b9050602081019050919050565b82818337600083830152505050565b6000611429611424846113d6565b6113bb565b90508281526020810184848401111561144557611444611345565b5b611450848285611407565b509392505050565b600082601f83011261146d5761146c611340565b5b813561147d848260208601611416565b91505092915050565b6000806040838503121561149d5761149c611336565b5b600083013567ffffffffffffffff8111156114bb576114ba61133b565b5b6114c785828601611458565b925050602083013567ffffffffffffffff8111156114e8576114e761133b565b5b6114f485828601611458565b9150509250929050565b6000819050919050565b611511816114fe565b82525050565b600060208201905061152c6000830184611508565b92915050565b600073ffffffffffffffffffffffffffffffffffffffff82169050919050565b600061155d82611532565b9050919050565b61156d81611552565b811461157857600080fd5b50565b60008135905061158a81611564565b92915050565b6000602082840312156115a6576115a5611336565b5b60006115b48482850161157b565b91505092915050565b600081519050919050565b600082825260208201905092915050565b60005b838110156115f75780820151818401526020810190506115dc565b60008484015250505050565b600061160e826115bd565b61161881856115c8565b93506116288185602086016115d9565b6116318161134a565b840191505092915050565b6000819050919050565b61164f8161163c565b82525050565b60008115159050919050565b61166a81611655565b82525050565b6000608082019050818103600083015261168a8187611603565b90506116996020830186611646565b6116a66040830185611646565b6116b36060830184611661565b95945050505050565b6116c5816114fe565b81146116d057600080fd5b50565b6000813590506116e2816116bc565b92915050565b6116f18161163c565b81146116fc57600080fd5b50565b60008135905061170e816116e8565b92915050565b6000806040838503121561172b5761172a611336565b5b6000611739858286016116d3565b925050602061174a858286016116ff565b9150509250929050565b61175d81611552565b82525050565b6000608082019050818103600083015261177d8187611603565b905081810360208301526117918186611603565b90506117a06040830185611646565b6117ad6060830184611754565b95945050505050565b6000806000606084860312156117cf576117ce611336565b5b60006117dd868287016116d3565b935050602084013567ffffffffffffffff8111156117fe576117fd61133b565b5b61180a86828701611458565b925050604084013567ffffffffffffffff81111561182b5761182a61133b565b5b61183786828701611458565b9150509250925092565b60006020828403121561185757611856611336565b5b6000611865848285016116d3565b91505092915050565b600060e0820190508181036000830152611888818a611603565b90506118976020830189611754565b6118a46040830188611646565b81810360608301526118b68187611603565b90506118c56080830186611646565b6118d260a0830185611661565b6118df60c0830184611646565b98975050505050505050565b60006020828403121561190157611900611336565b5b600082013567ffffffffffffffff81111561191f5761191e61133b565b5b61192b84828501611458565b91505092915050565b7f4950465320686173682063616e6e6f7420626520656d70747900000000000000600082015250565b600061196a6019836115c8565b915061197582611934565b602082019050919050565b600060208201905081810360008301526119998161195d565b9050919050565b600081905092915050565b60006119b6826115bd565b6119c081856119a0565b93506119d08185602086016115d9565b80840191505092915050565b6000819050919050565b6119f76119f28261163c565b6119dc565b82525050565b60008160601b9050919050565b6000611a15826119fd565b9050919050565b6000611a2782611a0a565b9050919050565b611a3f611a3a82611552565b611a1c565b82525050565b6000611a5182866119ab565b9150611a5d82856119e6565b602082019150611a6d8284611a2e565b601482019150819050949350505050565b7f4e487b7100000000000000000000000000000000000000000000000000000000600052602260045260246000fd5b60006002820490506001821680611ac557607f821691505b602082108103611ad857611ad7611a7e565b5b50919050565b60008190508160005260206000209050919050565b60006020601f8301049050919050565b600082821b905092915050565b600060088302611b407fffffffffffffffffffffffffffffffffffffffffffffffffffffffffffffffff82611b03565b611b4a8683611b03565b95508019841693508086168417925050509392505050565b6000819050919050565b6000611b87611b82611b7d8461163c565b611b62565b61163c565b9050919050565b6000819050919050565b611ba183611b6c565b611bb5611bad82611b8e565b848454611b10565b825550505050565b600090565b611bca611bbd565b611bd5818484611b98565b505050565b5b81811015611bf957611bee600082611bc2565b600181019050611bdb565b5050565b601f821115611c3e57611c0f81611ade565b611c1884611af3565b81016020851015611c27578190505b611c3b611c3385611af3565b830182611bda565b50505b505050565b600082821c905092915050565b6000611c6160001984600802611c43565b1980831691505092915050565b6000611c7a8383611c50565b9150826002028217905092915050565b611c93826115bd565b67ffffffffffffffff811115611cac57611cab61135b565b5b611cb68254611aad565b611cc1828285611bfd565b600060209050601f831160018114611cf45760008415611ce2578287015190505b611cec8582611c6e565b865550611d54565b601f198416611d0286611ade565b60005b82811015611d2a57848901518255600182019150602085019450602081019050611d05565b86831015611d475784890151611d43601f891682611c50565b8355505b6001600288020188555050505b505050505050565b60006020820190508181036000830152611d768184611603565b905092915050565b7f536f75726365206e6f7420726567697374657265640000000000000000000000600082015250565b6000611db46015836115c8565b9150611dbf82611d7e565b602082019050919050565b60006020820190508181036000830152611de381611da7565b9050919050565b7f436f6e74656e7420646f6573206e6f7420657869737400000000000000000000600082015250565b6000611e206016836115c8565b9150611e2b82611dea565b602082019050919050565b60006020820190508181036000830152611e4f81611e13565b9050919050565b7f4d6f64696669636174696f6e20696e646578206f7574206f6620626f756e6473600082015250565b6000611e8c6020836115c8565b9150611e9782611e56565b602082019050919050565b60006020820190508181036000830152611ebb81611e7f565b9050919050565b7f4e487b7100000000000000000000000000000000000000000000000000000000600052601160045260246000fd5b6000611efc8261163c565b91507fffffffffffffffffffffffffffffffffffffffffffffffffffffffffffffffff8203611f2e57611f2d611ec2565b5b600182019050919050565b7f4e616d652063616e6e6f7420626520656d707479000000000000000000000000600082015250565b6000611f6f6014836115c8565b9150611f7a82611f39565b602082019050919050565b60006020820190508181036000830152611f9e81611f62565b9050919050565b7f536f7572636520616c7265616479207265676973746572656400000000000000600082015250565b6000611fdb6019836115c8565b9150611fe682611fa5565b602082019050919050565b6000602082019050818103600083015261200a81611fce565b905091905056fea2646970667358221220fa26ee966dd5137794ae6b1d39c51a71e46a1cb5324ac43ab0db913701448b6864736f6c63430008130033",
  "linkReferences": {},
  "deployedLinkReferences": {}
}